:020000040000FA
:06000000020BE00201D634
:030013000204A73D
:03002B00020A17AF
:0300430002046A4A
:030053000200FCAC
:03007B00020994E3
:100083000201630101FF01010503010F10FEFF825D
:10009300148214821482143813321382140321003D
:1000A300000000C721000000000C0000000C00014C
:1000B300FFFF010101001D06000000940688136480
:1000C300006400B8010202002000000502070501D8
:1000D3000305020A0A02B80B02803E01020500145E
:1000E30003FFFFFF01002000000500FFFF00960053
:1000F300009651180002020601C0E074F1120530A7
:10010300A2AFE433FED2AFE5A7FFE5A1F5085FF5A3
:1001130009741055096006121B9075A1EF740855F8
:10012300096008121B9675A1F7802BEFA2E0C0D0DF
:10013300E508A2E092F0120B79158182F050179036
:100143006198E0F89007F5E0C398A2D265D03350E8
:1001530002E8F075A1FEEEA2E092AF7F0202058FE6
:10016300C0E074F2120530A2AFE433FED2AF906167
:10017300A4E0F8759B00E59158540860087591F761
:10018300121BD8802AE59158541060087591EF121C
:100193001BDE801BE8A2E0C0D0E591A2E092F01242
:1001A3000B79158182F05007E0C2E0F0121D109028
:1001B30061A3E0F8E5E9585404600E121CE675E902
:1001C300FB906193E0A2E640F2EEA2E092AF7F01E2
:1001D30002058FC0E074F2120530A2AFE433FED201
:1001E300AF9061A5E0F8E5BF585404600675BFFB06
:1001F300121D2280D4C3E498F8E499F912023980DD
:1002030026C3E49AFAE49BFBE920E7E9120239E406
:1002130098F8E499F922C3E498F8E499F9120239B9
:10022300E498F8E499F9C3E49AFAE49BFB22EB20FF
:10023300E7CFE920E7E0B90010BB0008E88AF084C3
:10024300F8AAF022E4FBC8FA22EB70227B10C83331
:10025300C8C933C9335007C39AC3DBF280069A5027
:10026300012ADBEAC833F4C8C933F4C9FA2275F0AA
:1002730008E4C833C8C933C933C99AC99B5004C9F0
:100283002AC93BD5F0ECFBC833F4C8E4C9FA220809
:100293000808EAC0E0EBC0E086F0E7A4FA18098694
:1002A300F0E7A42AFA180986F0E7A42AFA180986BF
:1002B300F0E7A42AFA1986F0E7A4FBE5F02AFA1975
:1002C3000886F0E7A42BFBE5F03AFA190886F0E775
:1002D300A42BFBE5F03AFA18180986F0E7A4C5F059
:1002E3002BFBE43AFA1908E7C5F0C6A426F6E5F0B5
:1002F3003BFBE43AFA1886F0E7A4F6E5F00826F6A5
:10030300E43B08F6E43A08F6D0E0FBD0E0FA22D06A
:1003130083D082ECC0E0EDC0E0EEC0E0EFC0E0E4EB
:1003230093A3FCE493A3FDE493A3FEE493A3FFEF61
:100333004E4D4C60151207A8EC24FFFCED34FFFD75
:10034300EE34FFFEEF34FFFF80E5E493A3FCE49378
:10035300A3FDE493A3FEE493A3FFEF4E4D4C60157E
:10036300120898EC24FFFCED34FFFDEE34FFFEEFA2
:1003730034FFFF80E5D0E0FFD0E0FED0E0FDD0E029
:10038300FCE493A3C0E0E493C0E022E4CFC0E0E444
:10039300CEC0E0E4CDC0E0E4CCC0E075F020C3E61D
:1003A30033F608E633F608E633F608E633F61818AC
:1003B30018EC33FCED33FDEE33FEEF33FFC3EC9764
:1003C30009ED9709EE9709EF97191919400FFFECFB
:1003D30097FC09ED97FD09EE97FE191906D5F0BEB6
:1003E300ECF709EDF709EEF709EFF7191919D0E062
:1003F300FCD0E0FDD0E0FED0E0FF222518C582C08E
:10040300E0E51934FFC583C0E0E518C3958224F8FD
:1004130010AF088583198582188008858319858222
:1004230018D2AFCEF0A3E520F0A37808E608F0A336
:10043300DEFAEFF0A3E58124FAF8E608F0A3E60874
:10044300F0A3E608F0A30808E608F0A3E608F0A383
:1004530015811581D0E0FED0E0F815811581158155
:10046300E8C0E0EEC0E022C0E074F2120530A2AFB3
:10047300E433FED2AFC2C0E5D1A2E4501D75D1EF83
:10048300900FEF7401F0900F69E0F8A3E0F9E849E9
:100493006008E0F583888212200FEEA2E092AF7F1E
:1004A3000102058FC0E074F2120530A2AFE433FEFF
:1004B300D2AFC2E9900F6BE0F8A3E0F9E849600A14
:1004C300A9C1E0F583888212200F80CED083D08229
:1004D300E9C0E0E493A3C386F0C5F095F0F908E41E
:1004E30093A386F0C5F095F0702408E493A386F0F7
:1004F300C5F095F0701908E493A386F0C5F095F064
:10050300700E08E493A3C3994007E9048004A3A3EE
:10051300A3E475F002A42582F582E5F03583F58323
:10052300D0E0F9E493A3C0E0E493C0E022C0D02577
:1005330018C582C0E0E51934FFC583C0E0E518C3E0
:10054300958224F310AF0885831985821880088566
:100553008319858218D2AFC8F0A3E9F0A3EAF0A308
:10056300EBF0A37908E709F0A3D8FAECF0A3EDF0D8
:10057300A3EEF0A3EFF0A3D0E0F0A3D0E0F0A3D07C
:10058300E0F0A3E520F0A3E5F0F0A322851983852D
:100593001882E0C0E0A3E0F9A3E0FAA3E0FBA378AC
:1005A30008E0F608A3DFFAE0FCA3E0FDA3E0FEA366
:1005B300E0FFA3E0C0E0A3E0C0E0A3E0F5D0A3E048
:1005C300F520A3E0A3F5F010AF0885831985821801
:1005D3008008858319858218D2AFD082D083D0E07A
:1005E300F8D0E032120C42B90003020629E4900469
:1005F30001787A790C8002F0A3D8FCD9FA900F7AAB
:10060300AA82AB83900086787779018015E493A35F
:10061300AC82AD838A828B83F0A3AA82AB838C8264
:100623008D83D8E9D9E775824C7583EB740312097E
:100633005B75820A758320740012095B0975F010DB
:100643008E1A8F1B85821F85831E851882851983C9
:10065300E0CEA3E0CF851F82851E83EBC9EAC8EDF8
:10066300CBECCAC3E833C8E933C9EA33CAEB33CBAB
:10067300C3EA9EF51DEB9FF51CB35004AB1CAA1DEA
:10068300EC33CCED33CDD5F0DAAE1AAF1B22D083E9
:10069300D082ECC0E0EDC0E0E493A3FCE493A3FDBF
:1006A300ED4C600D120769EC24FFFCED34FFFD8077
:1006B300EFE493A3FCE493A3FDED4C600D12084318
:1006C300EC24FFFCED34FFFD80EFD0E0FDD0E0FC37
:1006D300E493A3C0E0E493C0E022851983851882E4
:1006E300E0A3FEE0A3F5207808E0A3F608DFFAE034
:1006F300A3FFE0A3C0E0E0A3C0E0E0A3C0E0E0A369
:10070300C0E0E0A3C0E010AF08858218858319809C
:1007130008858218858319D2AFD083D082020961FC
:10072300D083D082E9C0E0E493A3C386F0C5F095FB
:10073300F0F908E493A386F0C5F095F0700BE49309
:10074300A3C3994005E9048002A3E475F002A4253C
:1007530082F582E5F03583F583D0E0F9E493A3C015
:10076300E0E493C0E022C0E0C3E4939608740193ED
:100773009618400FE4936670080874019366187026
:10078300007019A3A3C3E49396087401939618A366
:10079300A3400DD0E0D0E0D0E00206CDA3A3A3A3F5
:1007A300A3A3D0E022C0E0C0F088F0120ACCA8F0E6
:1007B30040071209FEA8F0701AA3A3A3A3120ACC40
:1007C300A8F0A3A3A3A34013D0F0D0E0D0E0D0E0DF
:1007D300020378A3A3A3A3A3A3A3A3A3A3D0F0D0AB
:1007E300E0227404800474028000CCC0E0EDC0E019
:1007F300E518C39CCCAD1950011D10AF068C188DA4
:100803001980068C188D19D2AF1208DDD0E0FDD007
:10081300E0FC2274028000CCC0E0EDC0E0E518C328
:100823009CCCAD1950011D10AF068C188D19800694
:100833008C188D19D2AF1208BBD0E0FDD0E0FC229A
:10084300C0E0C0F088F0E493667008087401936612
:10085300187000A8F0A3A3700BD0F0D0E0D0E0D0C4
:10086300E00206CDA3A3D0F0D0E022D083D082CC87
:10087300C0E0E493A360061208FE1470FAE493A3A5
:100883006006120A771470FAD0E0FCE493A3C0E088
:10089300E493C0E022C0E0C0F088F01209FEA8F0A3
:1008A300A3A3A3A3700BD0F0D0E0D0E0D0E0020369
:1008B30078A3A3D0F0D0E022CAC0E0E493A3C5821A
:1008C300CCC582C583CDC583F0A3C582CCC582C503
:1008D30083CDC583DAE5D0E0CA22CAC0E0E0A3C570
:1008E30082CCC582C583CDC583F0A3C582CCC58226
:1008F300C583CDC583DAE6D0E0CA22C0E0E493A382
:10090300D39C5010E493A3C39C400AD0E0D0E0D022
:10091300E002088BA3A3A3D0E022C008C3E096F5AE
:100923000808A3E096420808A3E096420808A3E05B
:100933009645087001D3D008227009080808226080
:1009430016181818C6C333C608C633C608C633C636
:1009530008C633C6D5E0EA22C09FF59FE473D09F53
:1009630022D083D082C09FE493C0E0740193C0E09F
:10097300740293F59F222518F58210AF08F51840ED
:100983000215198008F51840021519D2AF8519838D
:1009930022C0E074F2120530E5A8FED2AF121AE2CB
:1009A300C2EBEEA2E792AF7F0102058F7404800AC7
:1009B30074038006740280027401C0E0F404120917
:1009C30079D0E0120C1D22BB0102E722C082C08352
:1009D30089828A83BB0003E08002E493D083D082C0
:1009E30022C0D0251810AF08F51850020519800849
:1009F300F51850020519D2AFD0D022E493667013D4
:100A03000874019366700C08740293667005087489
:100A130003936622C0E0C0D0E8C0E0E5A8D2AFC22D
:100A2300C7A2E792AFD0E0F8D0D0D0E0326016088A
:100A33000808C6C313C618C613C618C613C618C6F5
:100A430013C6D5E0EA22C3E0C696F608A3E0C6962D
:100A5300F608A3E0C696F608A3E0C696F622251884
:100A630010AF08F518400215198008F51840021553
:100A730019D2AF22C0E0E493A36C7009D0E0D0E0B8
:100A8300D0E002088BA3A3D0E022E7667010080928
:100A9300E766700A0809E76670040809E76622C377
:100AA300E09608A3E09608A3E09608A3E096A2D2F6
:100AB30065D03322E066701008A3E066700A08A3CD
:100AC300E066700408A3E06622C3E4939608740109
:100AD30093960874029396087403939622C3E09640
:100AE300F008A3E096F008A3E096F008A3E096F0E0
:100AF30022E026F608A3E036F608A3E036F608A3BC
:100B0300E036F622E056F608A3E056F608A3E056D0
:100B1300F608A3E056F622E056F008A3E056F008E4
:100B2300A3E056F008A3E056F022E647F60809E6EC
:100B330047F60809E647F60809E647F622E627F6E8
:100B43000809E637F60809E637F60809E637F62214
:100B5300E657F60809E657F60809E657F60809E6E0
:100B630057F622700422600D18C6C333C608C63375
:100B7300C6D5E0F41822C0E0E8C0E0E58124FCF823
:100B8300E6A2E7D0E0F8D0E022E026F008A3E036C2
:100B9300F008A3E036F008A3E036F022E4C396F6AB
:100BA30008E496F608E496F608E496F622C6F4C638
:100BB30008C6F4C608C6F4C608C6F4C622C3E0963F
:100BC30008A3E09608A3E09608A3E09622C3E7965D
:100BD3000809E7960809E7960809E7962275D00001
:100BE300758140751801751904000205E7E0F608E0
:100BF300A3E0F608A3E0F608A3E0F622600C08C61B
:100C0300C313C618C613C6D5E0F422E6F008A3E65C
:100C1300F008A3E6F008A3E6F022CAC0E0E6F0A3DA
:100C230008DAFAD0E0FA22E0FAA3E0FBA3E0FCA39F
:100C3300E0FD22EAF0A3EBF0A3ECF0A3EDF022E554
:100C4300C754F84401F5C77901222518F582E43524
:100C530019F58322C2AF75D69F02000022120964E0
:100C6300DB240012096465250012096409260012B9
:100C730009645D26001209647626001209649C2625
:100C830000120964D726001209641B2700120964A5
:100C930042270012096493270012096443280012B3
:100CA3000964FB2800120964C32900120964832A1A
:100CB30000120964C72A00120964EC2A00120964AD
:100CC3002F2B001209647C2B00120964D42C001210
:100CD30009645A2D00120964782D00120964A22DAB
:100CE30000120964BC2D00120964CB2D00120964A3
:100CF300D62D00120964962E00120964EF2E0012FD
:100D03000964B12F00120964B92F001209647D3000
:100D130000120964E93000120964143200120964F4
:100D23003932001209644A3200120964C0320012D7
:100D33000964523300120964AA33001209646A3445
:100D43000012096489340012096498350012096499
:100D5300AA3500120964FD35001209643A360012FF
:100D63000964473600120964CA37001209641F393F
:100D730000120964513900120964E439001209644C
:100D83001D3A00120964693A00120964853B001296
:100D93000964CE3D00120964D93D00120964E43DA3
:100DA30000120964EF3D00120964F93D0012096461
:100DB300043E001209641E3E00120964283E00121C
:100DC3000964323E001209643D3E00120964653E27
:100DD30000120964C03E00120964CA3E001209648D
:100DE300EE3E00120964123F00120964703F0012C4
:100DF3000964B43F00120964D03F001209644740FC
:100E0300001209647F4000120964CB400012096498
:100E1300284100120964E24100120964C64300122A
:100E230009641F44001209644F45001209647545A3
:100E330000120964FE46001209647A4A001209642A
:100E43004C4C00120964154E00120964C24E001284
:100E530009642D5000120964CC5000120964115129
:100E6300001209647B51001209648A51001209645B
:100E7300115400120964C35500120964305600125C
:100E830009640F5700120964285800120964A55910
:100E930000120964C45900120964195A0012096442
:100EA3001E5B00120964465B001209649E5B00121C
:100EB30009647D5C00120964C15C001209640C5D65
:100EC30000120964775D00120964B85E00120964B8
:100ED3001C5F001209646A6000120964CA6200128E
:100EE3000964FB6200120964B364001209640865B3
:100EF300001209640C6600120964A96600120964F1
:100F0300026700120964B56700120964576800128A
:100F13000964F768001209649C6900120964A280DD
:100F230001120964E1800112096428830112096432
:100F33007283011209648D8401120964FD84011214
:100F43000964328501120964A6860112096429899C
:100F530001120964528A01120964E88A01120964C0
:100F6300F093011209648594011209646C970112CC
:100F730009645F9801120964C09801120964DC993D
:100F830001120964229B01120964049C0112096481
:100F9300E99D01120964FA9F0112096464A0011218
:100FA300096436A101120964EDA101120964F7A1D4
:100FB3000112096425A201120964E2A20112096463
:100FC300B9A30112096480A40112096432A50112B4
:100FD30009645BA5011209647DA501120964D3A705
:100FE30001120964ABA801120964EFA80112096494
:100FF30057A9011209640FAA0112096441AA011237
:10100300096485AA01120964BBAA0112096407AB2A
:10101300011209645CAB0112096461AB011209643A
:10102300B4AB01120964D9AB01120964E8AC011233
:1010330009644CAD01120964BCAD0112096448AEE8
:101043000112096415B101120964F9B101120964AD
:101053007CB301120964B2B50112096460B60112CE
:10106300096410B70112096451B901120964F4B992
:10107300011209643BBA01120964E7BB0112096456
:10108300FBBB0112096405BC011209642DBC0112EA
:10109300096439BC0112096458BC011209643FBEDA
:1010A3000112096476BE0112096480BE011209644B
:1010B300B6BE0112096405C00112096449C00112D8
:1010C3000964F1C001120964D4C1011209647FC229
:1010D30001120964CBC301120964C9C40112096472
:1010E3006FC501120964FFC50112096416C6011216
:1010F30009644DC60112096457C60112096462C628
:101103000112096480C601120964C4C6011209648C
:1011130021C70112096446C70112096460C701129D
:101123000964ECC70112096409C90112096476C98B
:10113300011209645DCA0112096484CA01120964B7
:10114300F8CA0112096473CB0112096477CC011246
:1011530009646DCD011209641CCE011209642FCFFD
:1011630001120964CBCF0112096458D0011209643A
:1011730036D1011209646ED101120964C6D101127C
:1011830009648FD201120964B0D20112096437D302
:10119300011209645BD3011209647DD3011209644E
:1011A300C6D301120964DCD501120964C3D6011246
:1011B300096474D701120964AAD901120964FAD91E
:1011C300011209643ADA011209647CDA0112096432
:1011D300D8DA0112096406DB011209642ADB011261
:1011E30009647DDB01120964ABDB01120964E4DBF2
:1011F3000112096439DC011209649FDC01120964DC
:10120300F3DD0112096416E00112096483E001129F
:101213000964ACE00112096437E1011209649EE13B
:1012230001120964E9E1011209640DE20112096482
:1012330031E2011209648CE201120964A7E201128E
:10124300096460E30112096420FF031209645FFF6C
:1012530003120964788002120964BE8002120964D1
:101263009E8102120964A08202120964A3830212FE
:1012730009642F85021209648D85021209644A8666
:1012830002120964688702120964D9870212096489
:101293001588021209646388021209646D880212B8
:1012A3000964B188021209640D8902120964A889CC
:1012B30002120964258A02120964F48A021209647B
:1012C3008D8B02120964AD8B02120964E38B021247
:1012D3000964148C02120964D58C02120964E58C2A
:1012E30002120964398D02120964548D02120964D1
:1012F300668D021209646F8D02120964C98D021290
:101303000964258E02120964718E021209648C8E9F
:1013130002120964BD8E02120964DA8E0212096494
:10132300E68E021209645A90021209647390021243
:101333000964DA9002120964ED9002120964FB90C9
:1013430002120964AF9102120964939202120964B2
:101353009993021209642394021209642D940212D0
:1013630009649A9402120964B19402120964E39421
:10137300021209641C95021209644695021209645B
:10138300A79502120964C79502120964E595021232
:1013930009642B96021209645197021209649E97FD
:1013A30002120964CD970212096443980212096478
:1013B3006B9802120964A49802120964B29802128B
:1013C30009640A99021209645999021209649899E5
:1013D30002120964C89902120964F4990212096499
:1013E300FF99021209641D9A02120964DF9A02121C
:1013F3000964E99A02120964249B021209643A9B64
:10140300021209648F9B02120964A39B02120964EE
:10141300B19C02120964C49C02120964D99C021291
:1014230009647B9D02120964FE9D02120964BC9E3D
:1014330002120964C79E02120964F39F021209642F
:101443000FA00212096461A002120964A0A0021293
:101453000964B5A00212096417A102120964A6A1C6
:1014630002120964F1A10212096442A4021209647E
:10147300C0A40212096435A50212096457A7021217
:1014830009646FA70212096472A7021209647EA796
:101493000212096492A7021209649AA7021209644C
:1014A300CDA7021209647DA802120964F3A80212EF
:1014B300096466A9021209641AAA02120964CFAA6E
:1014C30002120964EEAA021209648EAB02120964C5
:1014D3009AAB02120964C5AB02120964C8AB0212CB
:1014E300096432AC021209645AAD0212096432AEC5
:1014F30002120964BDAE02120964D6AF0212096476
:1015030093B002120964CCB002120964FDB0021256
:101513000964BBB102120964EBB102120964C6B2D9
:10152300021209645FB302120964EAB30212096486
:101533009BB4021209641EB50212096450B502126B
:10154300096491B502120964EF9903120964549A6C
:1015530003120964919A03120964E09A031209645D
:10156300CA9C03120964B19E03120964EAA103121F
:10157300096456DE0212096428A20312096491A2C7
:1015830003120964CDA203120964FAA203120964C7
:101593002CA3031209648AA303120964C18E0312E4
:1015A30009643F8F03120964718F03120964C98FA1
:1015B300031209644391031209645F9103120964DE
:1015C3009A9103120964219203120964719203121E
:1015D30009647A24001209644294031209649694FC
:1015E30003120964119503120964729503120964C5
:1015F300B395031209645E96031209647C97031280
:101603000964B29703120964FD97031209644498AD
:1016130003120964CE9803120964739903120964CF
:1016230022BC0312096468BC03120964D2BC03120E
:101633000964F3BC0312096493BD031209649DBDDD
:1016430003120964EABD031209640FBE031209649D
:101653006FBE0312096405BF031209643DBF031281
:10166300096496BF03120964F2BF0312096420C020
:1016730003120964A8C003120964EDC003120964CC
:101683002CC10312096471C10312096483C10312DB
:10169300096495C103120964B4C103120964C3C187
:1016A300031209646FC203120964AFC2031209640F
:1016B30018FD0312096419E9031209644FE90312BF
:1016C300096498E903120964E5EA031209647EE4F4
:1016D30002120964F7E502120964B8E70212096409
:1016E300F4E7021209646BEB02120964B1EB021214
:1016F3000964D6ED02120964A8EE0212096454EFDC
:1017030002120964FFF00212096449F30212096428
:1017130065F60212096473F6021209644EF70212A7
:10172300096465FB021209648B8004120964A180B9
:10173300041209646ADB031209647DDB0312096482
:101743001BDC031209645DDC0312096482DC0312EF
:101753000964C7DC0312096400DD0312096431DD87
:1017630003120964A4DE031209648DFE03120964E3
:10177300CAFE031209640CFF0312096416FF031265
:101783000964E869001209643A6A001209642E6B5D
:1017930000120964C76B00120964116C001209641A
:1017A300736C00120964556E00120964726F0012A3
:1017B3000964AD6F00120964AB7100120964FA7118
:1017C300001209641072001209641D720012096488
:1017D3004D72001209646672001209641A730012D2
:1017E30009647D7300120964D37300120964EB74F6
:1017F300001209640D75001209648F7700120964E1
:10180300BD77001209644F7800120964C178001291
:101813000964C678001209640079001209647779B3
:10182300001209641E7A00120964527A00120964D4
:101833005C7A001209645F7A00120964C97A0012A3
:101843000964F17A00120964047B00120964307B95
:10185300001209646B7B001209646E7B0012096439
:10186300797B00120964B57B0012096454FB0312EF
:10187300096465FB03120964EEFB031209642BADD3
:10188300031209647AAD031209642CAF03120964CD
:10189300E1B00312096429B10312096425B20312EA
:1018A30009647CB3031209649EB303120964FAB397
:1018B300031209647CB4031209649AE301120964F4
:1018C300C8E30112096413E50112096495E50112E5
:1018D3000964FFE50112096441E601120964BEE6E9
:1018E300011209645DE701120964ECE7011209645E
:1018F3001FE80112096413ED01120964BBEE011222
:1019030009647FEF01120964BCEF01120964E3F17A
:101913000112096405F50112096480F501120964D5
:101923007DF601120964C0F901120964D0F90112AC
:10193300096435FB01120964A4FB01120964B9FCB3
:1019430001120964FBFD0112096475FE01120964A9
:10195300008003120964BF80031209642B81031200
:101963000964D281031209642F8203120964178563
:1019730003120964D785031209643C8603120964C0
:10198300E68703120964A3880312096423890312F7
:101993000964C98A03120964F08B031209648B8CEE
:1019A30003120964868D03120964A6D40312096421
:1019B300FAD40312096435D5031209649ED50312C0
:1019C3000964DED5031209644ED603120964EBD60B
:1019D300031209641DD70312096439D7031209647A
:1019E300A6D703120964DBD70312096443F1031278
:1019F300096474F1031209642DF20312096493F26A
:101A030003120964D1EB03120964E0E603120964CB
:101A13000FE70312096463E803120964E9E8031298
:101A2300096403E903120964B28004120964FED74E
:101A33000312096495D803120964BFD90312096418
:101A4300BADA0312096443DB03120964A77F0012A5
:101A5300096404F30312096433F303120964C0F342
:101A630003120964B0B40312096428B503120964AC
:101A730039B50312096444B5031209647AB6031233
:101A8300096422BA031209646CBB03120964D5FF0B
:101A930001120964E6FF01120964F8FF02120964E6
:101AA300E7FF021209642FFF011209643FFF0112CD
:101AB300096457FF01120964C5FF0112096456FA4C
:101AC30003120964D7FA031209643BFB0312096486
:101AD30041FC031209645DFC03120964B2FC0312A6
:101AE3000964F8FC0312096422F80312096437F845
:101AF30003120964B0F803120964CAF803120964F3
:101B0300DDF803120964F7F8031209640EF90312EE
:101B1300096413D10312096428D103120964A8D1FB
:101B23000312096490D20312096446D403120964B0
:101B3300698004120964A4C703120964F9C7031274
:101B43000964CDC903120964FFC90312096426CAD3
:101B5300031209643ACA0312096453CA03120964DB
:101B630082CB031209646EF40312096492F4031224
:101B73000964ABF403120964DEF4031209640FF57C
:101B8300031209643DF5031209649FF50312096406
:101B9300AEF503120964B8F503120964C5F503121F
:101BA3000964C9E10312096406E20312096415E238
:101BB3000312096434E2031209649CE20312096408
:101BC300A5E20312096404E30312096428E3031280
:101BD30009641BE40312096428E40312096439E469
:101BE300031209640080041209641D80041209644D
:101BF30096CC03120964F3CD0312096400CE0312D9
:101C0300096413CE0312096432CE0312096448CE69
:101C1300031209645CCE03120964D1CE0312096472
:101C230036CF03120964E6CF03120964BBD0031253
:101C33000964CBD003120964DAD003120964F2FDFC
:101C43000312096417FE0312096440FE03120964B8
:101C530068FE0312096464ED031209648BED031239
:101C6300096407EE0312096467E40312096480E45C
:101C7300031209648CE403120964A0E403120964E7
:101C8300BEE403120964C8E403120964D2E4031234
:101C93000964E5E4031209643DE50312096476E58A
:101CA30003120964A4E503120964F2E5031209644B
:101CB3003FE6031209645AE60312096464E6031259
:101CC300096496E60312096496FF02120964DAA313
:101CD3000312096404A40312096420A4031209640F
:101CE30033A40312096472A403120964F3A4031254
:101CF30009642BA90312096455AA0312096488AA6B
:101D030003120964D5AA03120964FDAB0312096423
:101D130025AC0312096448AC031209648CAC0312AA
:101D23000964EDAC03120964FDAC03120964CFF539
:101D330003120964EAF50312096413F60312096432
:101D43002DF60312096452F60312096471F60312A5
:101D5300096489F603120964B7F603120964D1F61C
:101D630003120964AFFF03120964F8FB021209644A
:101D7300FFFB0212096434FD0212096463FD0212BF
:101D83000964D1FD0212096464FE021209649DFE16
:101D930002120964E6FE0212096416FF02120964C4
:101DA30036FF0212096402F70312096424F70312CF
:101DB30009641CF8031209641FF8031209647CEF19
:101DC30003120964F4EF031209644DF0031209646A
:101DD300F7F00312096441F903120964A0F903122D
:101DE3000964F6F90312096437FA03120964B1DED0
:101DF3000312096473DF03120964E9DF0312096440
:101E0300F2DF0312096405E00312096410E0031210
:101E1300096489E0031209642FE103120964DA7B80
:101E230000120964F97B00120964447C00120964FE
:101E3300607C00120964917C00120964A17C001289
:101E43000964AE7C00120964BB7C001209649E7DA8
:101E530000120964DC7D00120964E67D0012096446
:101E6300057F00120964107F00120964227F0012AB
:101E730009642B7F00120964357F00120964D8C2FC
:101E83000312096488C70312096469FF0312096412
:101E93003C80041209640EDE0212096480DD021222
:101EA300096473DD021209646DDA02120964CFD783
:101EB3000212096498D602120964ECD5021209646D
:101EC30032D402120964E2D10212096469D1021206
:101ED300096410D102120964A0D00212096477D0F8
:101EE3000212096457CE0212096423CE0212096456
:101EF300F0CD02120964D4CD02120964EDCC0212B2
:101F03000964A5CC02120964F0CA0212096470CAFA
:101F1300021209646DCA021209646EC902120964CD
:101F23003CC9021209642824001209641624001211
:101F3300096457E40212096439E40212096405E3EF
:101F43000212096479C802120964A4C60212096460
:101F530035C60212096462E20212096407C602125C
:101F6300096404C602120964F1C5021209649CC51E
:101F73000212096415E1021209643E930312096413
:101F83008BC5021209647DC40212096447C402129C
:101F93000964F5C30212096496C30212096465C396
:101FA300021209642DC002120964EDBF0212096412
:101FB300E1BF0212096441BF0212096481BE021229
:101FC300096403BC0212096494B90212096452B988
:101FD3000212096426B802120964DBB7021209640B
:101FE3001AB702120964EDB60212096430B602127E
:101FF3000964C6B50212096400B602120964C0DEA0
:102003000212096410A20300000080FBE4730001C4
:102013003636010100010201000103010001040140
:10202300060605020000070100340801000F090439
:1020330001010D0100FF0E08000017020000190145
:1020430000FF1A0100011B0100FE1C0100081D0214
:1020530000001F01000120010001210200002301F3
:10206300000F2402000026010001270100082802B6
:1020730000FF2A0100072B0102402C0100002D0163
:1020830000012E0100012F0100FF30010B1C31085C
:1020930000003A0100083B01000F2F01000003027A
:1020A3007102300160021102700201020202020297
:1020B3008002100261023A0041006302730272025D
:1020C300620243020002130238000002000204020B
:1020D300120200020002000200020402040237009E
:1020E30037003C024402000239000002000265028C
:1020F300000235028102000205028202830200020D
:1021030003007100300160001100700031022003F0
:10211300500480001000610000001400630073008D
:10212300720062004300000013000600000000007C
:10213300040012000000000000000000040004007E
:10214300370037003C02440000000000000000009C
:1021530065000000350081000000050000008300D9
:1021630000000304710402046004110470040204F7
:10217300020401040204100461040004140463044F
:102183007304720462044304000413040604000489
:1021930000040404120400040004000400045104B5
:1021A3006400000400040004440400040004000468
:1021B300000465040004350481046400050400047C
:1021C30083040004010371030103010301030103F9
:1021D30001032203020301031003000300030003AE
:1021E3000003000300030003420300032403060368
:1021F300000300030403120325032303250323031E
:102203000403040300030003000344030003000367
:102213002303000365032100350381030003050342
:102223000003000300030101710101010101110118
:1022330001013101010101018001100161013B0034
:102243001400630173017201620143010001130170
:1022530006013D01350004011201000100010001E6
:10226300000104010401330133013C014401320143
:102273003600000100016501000135008101000104
:102283000501820183010001360001000600000000
:102293000F0000000000000000000000000003FF2A
:1022A300FF00000403FFFF0000FFFF0FF401000520
:1022B300C4040320000100000B0000000000000024
:1022C3000003010F000068191300081901006819C1
:1022D3000200D2180300D8180400DE180500E41821
:1022E3000600F018FFFF000001660F069C0F08961A
:1022F3000F0BB40F10E20E026C0F058A0F07720F5B
:102303000C480F0D5A0FFF000003EAF5E5D5D5C5BC
:10231300B5A59595858575756565555545453535DA
:1023230025251515059213C21398139E13BC13B0DC
:1023330013AA13C813CE13D413E013A4138C138658
:102343001300160F00000B150B020002220F3200C0
:102353000006821494149A145C13A0145613621387
:1023630096129012CC12D212C6127E12E2140015EB
:102373000615E814F414EE14303016181920231A35
:102383001C1E300C0E020B040B0A0708000F00384A
:102393003C3E363B3B352B432C303017181921304C
:1023A3001B1D1F30000119161816161523030000F4
:1023B300034948424D1817250502D614A614AC1438
:1023C300B814B214B613DA13FA14E613EC130204B6
:1023D30002010101010902A212A8129C12D81200E3
:1023E3000000000000AE12C01200BE040A0E001569
:1023F3000004007F00E8030C002800000000000335
:1024030008100C0A03080500040001FF1E1E0C053A
:10241300040F08C082C0838A828B83E0D2E7F01264
:1024230018300235F6C082C08379001228E21259AF
:1024330074C082C0839004341246FAD083D082C31E
:10244300E09CA3E09D500C126048FAA3E0122459CB
:102453006001090235F6FBEA75F00BA4FAA8F075E2
:10246300F00BEBA428FB900436E02AF8A3E03B88AA
:1024730082F583E0540F2274F71203FE89081228B1
:10248300E2122988ACF075F00BE9A42CF99004361C
:10249300E028FEA3E039FF74016508600674026555
:1024A3000870208A828B831229741239D6740265CC
:1024B30008701B1228331229BB70138E828F83E49A
:1024C300F0800BEA2403FCEB122956122962EEFA80
:1024D300EFFB121F2C02393374F41203FE12696FDF
:1024E30079008E828F83E06076890A890B8065E5A7
:1024F3000A75F00BA4FAA8F075F00BE50B1224662D
:102503007046E50A75F00BA4F8AAF075F00BE50B1D
:1025130012299A8E828F83E0850882850983122A85
:102523007C850882850983A31239D6EE2403FCEF48
:1025330012295F1237B41253EEAA08AB09121F2CEB
:102543007901900434124E03E50A2401F50AE50BE0
:102553003400F50B12283BE50A9AE50B9B409002E9
:102563003B8074F51203FEEAFEEBFF740B120C4D75
:102573001237B9750A01EC4D602BEC12698BED1221
:1025830059741239CE79011215D2E5084509606FE5
:10259300850882850983A31269797902AA08AB09A0
:1025A3001215D2805AE5084509602B12597812405A
:1025B300421237B51229A5700CEEFAEFFB120C602C
:1025C300E9F50A80CBEE2403FA1228DD7031790392
:1025D300EEFAEFFB80CA8E828F83A3E064FE700362
:1025E300A3E0F4700BEE24030A0A0A1228DD700C30
:1025F300EEFAEFFB120C60E9F50A8003750A00A9F5
:102603000A7F030206DD74F71203FE9004341239C5
:1026130043EA4B602FEA75F00BA4FAA8F075F00BB0
:10262300EBA428FBEAFEEBFF1216C2900436123924
:1026330043900436124C486012EEFCEFFD79001211
:10264300162C8007900436E4F0A3F002393390048B
:10265300341243B2C3EE98EF9922C082C083EC4D8B
:102663006005121DE880097C087D00790012162C94
:102673000235F674F61203FE7900EA4B601878000F
:102683008808125CBBEB1260446004790178080887
:10269300E8C3940840EA0239DF74F71203FE74F3C7
:1026A300120A61ECFEEDFF851882851983E4F004BC
:1026B300120C4DEAF0A3EB1251747403120C4DACDF
:1026C30082AD83EEFAEFFB120C72EEFAEFFB120C03
:1026D3007802392E74F71203FE74F3120A61ECFECA
:1026E300EDFF851882851983E4F0EAFCEBFD7403A2
:1026F300120C4D122A757401120C4D1239CA8E82B6
:102703008F831239D674FE68700374FF696004798D
:10271300018002790002392E74F71203FEEAFEEB00
:10272300FF12277970141227848E828F83E0F4F8C6
:102733008A828B83E058F0121F2CA9080239337464
:10274300F71203FEEAFEEBFF7508008E828F83E02B
:102753006022122779701D1227848A828B83E08F6F
:10276300838E82F8E058700CE0F88A828B83E0480D
:10277300F0121F2C80C4121F26E9F50874016508A6
:102783002212698412298C1228CEFAA3E039FB2283
:1027930074F41203FE8A088B097C007D001228332F
:1027A3001229621228F31269767900850882850955
:1027B30083A3E064FE7003A3E0F460717E007F00F6
:1027C3008062EEFAEF1224596057EEFAEFFBEA75D6
:1027D300F00BA4FAA8F075F00BEBA428FB900436D9
:1027E300E02AF50AA3E03BF50B850882850983A35C
:1027F3001250C2850A82850B83A3E06A7003A3E0AB
:102803006B701EE50A2403FAE50B1228DE700AE555
:102813000A2403FCE50B12295F1228E779011259F8
:102823008A1231D212283BEE9AEF9B4095023B80ED
:10283300EA24030A0A0AEB22900434125561C322E4
:1028430074F31203FE8A088B098A828B83A31269AD
:10285300791228E2126976750C001228331228DEE9
:1028630070547E007F0080491228C0FAA3E0398AA1
:1028730082F583E0540F60361228C0F50AA3E039CD
:10288300F50BE50A2403FCE50B1229693400FB125E
:102893001DE2E964017017850A82850B83A3125632
:1028A30022A31239D61228E7750C0112598A123164
:1028B300D212265140B2A90C7F050206DDEEF8EFD5
:1028C300F9E875F00BA4F81228CE22AAF075F00BE4
:1028D300E9A42AF9900436E02822EF1229B522123E
:1028E300698AEB221228F3125985EEF0A3EFF02246
:1028F300E50812698BE5092274F51203FEEAFEEB83
:10290300FF8E828F83A31269797C007D00EE2403FE
:102913000A0A0AEF122962EEFAEFFB121F26E9F503
:102923000A7401650A7029126984122988AAF0754C
:10293300F00BE912299A850882F58312297412296A
:10294300A5700DE5082403FCE50912295612296236
:102953000226023400FDEE2403FAEF221229693421
:1029630000FB120C72223400FDE5082403FAE5098A
:1029730022A31229792212297D22E0F8A3E0F98EFD
:10298300828F83A32212298C223400F5831243B64B
:10299300E875F00BA4F8221228D4F508A3E039F562
:1029A3000922E8F0A3E9F0E5082403FAE50912296E
:1029B300B5221229BB6401223400FB120C78E922F0
:1029C30074F31203FE74E6120A6112696F750C0147
:1029D300750800750900750A00750B008518828556
:1029E3001983E4F0EE2403FCEF3400FD7403120CAE
:1029F3004D122A75E964017023740B120C4D1239C0
:102A0300CE7401120C4D1250C67003A3E0696051DD
:102A1300851882851983858208858309740D120CB4
:102A23004DE4122A7C740E120C4D1239D6740D1219
:102A33000C4DAA82AB83120C96E96401700B740DE2
:102A4300120C4D85820A85830B780A1209B7AC08EC
:102A5300AD09EEFAEFFB120C6674021209E4E9F514
:102A63000CEEFAEFFB120C90A90C741A1209E40293
:102A730028BB122D48120C9C2212393E1243B2225B
:102A8300C082C083780079008003122B7312283B25
:102A9300E89AE99B5029E8FAE9FBEA75F00BA4FAF6
:102AA300ACF075F00BEBA42CFB900436E02AFCA3EE
:102AB300E03B8C82F583E0540F70CF79008002797C
:102AC300010235F6C082C0839023F2124408EC75EC
:102AD300F012A4FCA8F075F012EDA428FD79FF7A9A
:102AE300647B0812162C0235F674F71203FEE9FE16
:102AF300EAFF7A007B00780079008028E8FCE9FD92
:102B0300EC75F012A4FC85F00875F012EDA425080D
:102B1300122F88C39E400AE0FCEFC39C400312308F
:102B2300A7122B73122F7C40D3023933C082C08388
:102B3300780079008003122B73122B67501F122F1A
:102B43008CF470F2E875F012A4F8AAF075F012E9AB
:102B5300A42AF9746428FA740839FB80047A007B88
:102B6300000235F69023F212303DC3E89AE99B2226
:102B7300E8240108E93400F92274F01203FE74F327
:102B8300120A618A0A8B0B8C0C8D0D8908EC450D9A
:102B93006016AA0CAB0D120CEA8A0E8B0FAE0EAFA9
:102BA3000FEE4F6003022C3A120CC08A0E8B0FA853
:102BB3000EA90FE8FEE9FFE849607C902400122C7F
:102BC3009C60227403650860067404650870167AB5
:102BD300047903120CBA902400122CB340077A0034
:102BE3007B00022C999023FE122C9C601B740165C0
:102BF30008600674026508700F7A027901120CBA34
:102C03009023FE122CB350D6851882851983740144
:102C1300F0120C4D1253EEAC0CAD0D7403120C4DAF
:102C2300122D41740B120C4D1237C1123DB6E41232
:102C330053D61211D68004EE4F604A780074FF25F4
:102C430008C39404500278048E828F831253EE8E4D
:102C5300828F83A3A3A3A3E508F0E88E828F83A3C7
:102C6300A3A3A3A31253F61202311230548E828F00
:102C730083A3A3A3A3A3A3A3F012304B120C2A1282
:102C8300596E120C36122CA14005900F7EE4F012FF
:102C930010B0EEFAEFFB0243BC12551049227A043E
:102CA3007900120CBA9023F212602AEA98EB992267
:102CB300122CCC7583237582F2E493C398F8A3E4B2
:102CC3009399F9C3EA98EB9922E493F8740193F981
:102CD3002274F21203FE74F3120A618A088B09EC60
:102CE300FEEDFF750A00EEFAEFFB120CEA8A0C8B7D
:102CF3000DA80CA90DE849603E88828983E0650828
:102D03007004A3E06509602F88828983A3A3A3A32A
:102D1300E0C39405502112581C85188285198374C9
:102D230001F0120C4D125820EEFCEFFD7403120C4F
:102D33004D122D41750A01A90A740D024EBA122DC6
:102D430048120CA822AA82AB83120C7285188285C2
:102D53001983AA82AB832274F61203FE122D9660A6
:102D63000FA3A3A3A3E014C3940450047901800226
:102D730079000239DF74F61203FE122D96600FA359
:102D8300A3A3A3E014C39402500479018002790041
:102D93000239DF120CE48A828B83E5824583227435
:102DA300F61203FE122D96600BA3A3A3A3E07004F7
:102DB3007901800279000239DFC082C083EAFCEB2B
:102DC300FD7A007B000235F3C082C0837C007D0066
:102DD3000235F374F41203FE74F3120A61EAFEEB94
:102DE300FF8C0A8D0BC3EC94F8ED94FF4007EE4F74
:102DF3007003022E8F750800750900802E851882D6
:102E03008519837401F01231FA120C4D12320860E5
:102E1300137403120C4DAC82AD83EEFAEFFB121D5B
:102E2300E2E97049E50824011230289023F2E41204
:102E33005518E50898E509995052E50875F012A46C
:102E4300F8AAF075F012E509A42AF912605D60D4BE
:102E5300EE4F70A974FF650A700474FF650B60C4BC
:102E63001231EA650A7004A3E0650B70B7E50875D3
:102E7300F012A4F508A8F075F012E509A428F509E5
:102E830074642508FA74083509FB80047A007B0012
:102E9300023B7B74F41203FE74F3120A617508009B
:102EA300120CEA8A0A8B0BAE0AAF0BEE4F602A852F
:102EB30018828519837401123938F8A3E0F9740B69
:102EC300120C4D123A59120C8A7C127D0079FFEED6
:102ED300FAEFFB12162C750801122CA15009900F62
:102EE3007E7401F01210B0A908023B7B74F7120341
:102EF300FEE9FE74FE6A700374FF6B78007900705C
:102F0300058052122B73122F7C504AE8FCE9FDEC2A
:102F130075F012A4FCAFF075F012EDA42F122F88F8
:102F2300F460E0E8FCE9FDEC75F012A4FC75F01226
:102F3300EDA42FFD74642CF58274083DF583E06ADB
:102F43007003A3E06B70BC8009122F8C14C394042C
:102F53004017122B73122B675018EE70EC122F8C44
:102F630064016005E0640370E91231DBFAA3E0FB5E
:102F730080047AFE7BFF0239339023F212440CC3A0
:102F8300E89CE99D221230DC22E8FAE9FBEA75F0BD
:102F930012A4FAACF075F012EBA42CFB74682AF5BA
:102FA3008274083BF583E022120CFC0235F6C082E2
:102FB300C083790180F274F01203FE8A0A8B0B7AC4
:102FC300047901120CBA8A0C8B0DEA450D603EEAB6
:102FD300C333FAEB33FB1216C28A088B09AE08AF70
:102FE30009EE4F60237AFE7BFF120D0274FE6A70B6
:102FF3000374FF6B601B850882850983123943E5DF
:1030030008240212302880E1750C0080047E007FC2
:1030130000850A82850B83E50CF0EEFAEFFB024391
:10302300C1E5082407F508E5093400F509229023D2
:10303300F212440CC3EA9CEB9D22E493FA740193CD
:10304300FB2212162074032212597FE4F09080654C
:1030530022E88E828F83A3A3A3A3A3A3A3A31230E7
:10306300767401123076A3F0EE2410125982E4F044
:10307300A3F022123DC2A3A3A322C082C0837A007D
:103083007B008004191230A712303150101230C661
:10309300C3940550F0E970EC1230B080047A007BE1
:1030A300000235F6EA24010AEB3400FB22EA75F04C
:1030B30012A4FA75F012EBA428FB74642AFA7408BC
:1030C3003BFB22EAFCEBFDEC75F012A4FCA8F075C7
:1030D300F012EDA4281230DC22FD74682CF5827402
:1030E300083DF583E02274F71203FE74F3120A61BC
:1030F3007E007F0002318EE50875F017A4F8A9F071
:103103001262BEFAA3E0FBEEF8EFF9E875F012A441
:10311300F8ACF075F012E9A42C1231E96A7003A33C
:10312300E06B603FE50875F017A4F8AAF0EA1262B5
:10313300BDF8A3E0F97401120C4DE0687003A3E03D
:10314300696020E50875F017A4F8EAF974E028FC33
:10315300740939FD7403120C4DAA82AB83121DE26C
:10316300E96014E50875F017A4F8A9F074DE28FAED
:10317300740939FB1211E20508902404E493F8E57D
:1031830008C39850030230FA1231D29023F2126628
:10319300045039EEF8EFF91231DBF47003A3E0F4D5
:1031A30060E68518828519837401F0EEF8EFF9E87B
:1031B30075F012A4F875F012E9A42AF91231FA1283
:1031C3000C4D12320860C175080080AD02392EEE35
:1031D30024010EEF3400FF22E875F012A4F8AAF0E0
:1031E30075F012E9A42AF91231EE22746428F582EB
:1031F300740839F583E022746628F582740839125D
:1032030043B0740B22E8F0A3E9123A61120CA2E96D
:1032130022C082C08390043D7484F0A3740FF090A5
:10322300043F747EF0A3740FF09004437498F0A3EA
:10323300740DF00235F6C082C0839004417478F0B7
:10324300A3740FF00235F674F71203FEEAFEEBFFE8
:10325300900477E06408601BE0640460168E828F3C
:1032630083E05403640170481237B4123EB7E0643C
:1032730006703D8E828F83A3A3E064FE7003A3E0F8
:10328300F4602D8E828F83A3A31239CA900468E061
:10329300687003A3E069700BEE2415F582EF1260EA
:1032A30044600812103EE9F508800812104480F6C5
:1032B3007508C2EEFAEFFB1216C802273D74F4122A
:1032C30003FE8A088B098A828B83E0F8A3E0FAE87D
:1032D3002AFAE43400FB1216C28A0A8B0BAE0AAF39
:1032E3000BEE4F6063850882850983E0FC7D0079DE
:1032F3000012162C8E828F83A3A312697912108079
:103303008E828F83A3A3A3A31239438508828509E1
:1033130083E0F8EE28F8EF34001239D2850882856D
:103323000983A3E0C0E0EE240D125971D0E0F0123E
:103333001092EE240E125971E9125023E0C0E0EE10
:103343002411125971D0E0F0EEFAEFFB023B8074C6
:10335300F41203FE74EB120A618A088B098C0A8D3E
:103363000BE9FE900477E064046005E064087004F0
:1033730079C2802EA37808120C0EEE90047E1236CA
:1033830034120C0E7405120C4DE9F07404120C4D3A
:103393007401F07407120C4DE4F090047774021278
:1033A30035917415023B7D74F61203FE74EB120A19
:1033B30061EAFEEBFF124C45600302344E7A077B51
:1033C300001216C2900439123943124C4560788EAC
:1033D300828F83120C2A90043A123EBA120C3612D0
:1033E300683DC0E012345AD0E0F0EE2405FAEF3421
:1033F30000FB8A088B098A82F583E0C0E01234550A
:10340300D0E0123B77E0C0E0123455A3D0E012398C
:10341300B7120C2A851882851983120C3688828983
:1034230083E0C0E07405120C4DD0E0F0850882857E
:103433000983E0C0E07404120C4DD0E0F07407126D
:103443000C4D1235908006791080027901741502B3
:1034530039DC12345AA322900439E0FAA3E0F5834D
:103463008A82A3A3A3A322C082C083124C45600D0A
:1034730090043912554F900439E4F0A3F0120FAEC3
:103483001211820235F674F01203FE74EB120A6114
:10349300ECFEEDFF89087425120C4D780C120BF02D
:1034A3007429120C4DE0F9742A120C4DE0FC742BB4
:1034B300120C4DE0FD740F697005740F6C6012906F
:1034C3000FC9E06402700579C102358BE9C39C40E2
:1034D300F6900478780C120C0EE50890047EF0E95F
:1034E30090047CF0ECA3F0ED90047FF074FF6A701D
:1034F3000374FF6B701D900FD4E0F47003A3E0F42A
:103503007005121638800C900FD412390BE8F0A313
:10351300E98007900475EAF0A3EBF0EE4F6017EE35
:10352300FAEFFB121242E96401700BEEFCEFFD7A35
:10353300897B04121DE8900468E4F0A3F090046B07
:10354300F0A3F0900488F0900FC9E0640270089033
:10355300047C740FF0A3F09004777405F014120C3C
:103563004DE4F0900478120C2A8518828519831291
:103573000C3690047EE0C0E07405120C4DD0E0F0F0
:103583007407120C4D12359074150243BEE4123ABF
:1035930061121E4822C082C083900438E070031277
:1035A3001902120D50804CC082C083900438E09001
:1035B3000F7D7004E4F0802D7401F0900438E0F482
:1035C30060237C41E0C394415002E0FCECF8E0C38B
:1035D30098F0EC75F0E8A4CCA8F075F003A428FDEE
:1035E3007A801244147A7D7B0F7941121E30800356
:1035F300120CF0D083D08202096174F41203FE74BA
:10360300EB120A618A088B098C0A8D0B900477747C
:1036130001123634120C0E7405120C4DE9F07404C9
:10362300120C4D7403F07407120C4D1235900233D3
:10363300A51239C278082274F71203FE7C01120D19
:103643006202393374F21203FE74FC120A61E985D3
:103653001882851983F0EAFEEBFF8C0A9004751239
:1036630046FA120FA28A088B09EA4509700579CA3E
:103673000237AF8A828B83A3A3A3A3A3A3A3E0648C
:10368300FE7003A3E0F4700579C30237AF900475AD
:103693001250C21211E8850882850983A3A3A3A34C
:1036A300A3A3A3A3A3A3E004900488123912740272
:1036B300120C4D7402F014120C4DAA82AB8312103B
:1036C300EC8A0C8B0DAE0CAF0DEE4F70030237A6D8
:1036D3001237B41240367406F0A3A882A98390046B
:1036E3006212558C12438FF0EE2413125971740138
:1036F3001253CE7440F0A3E412501CA3A31237C19B
:103703001239D6EE2411125971E50AF0EEFAEFFBE5
:10371300120D26E9FE60030237A89004777409F0BE
:10372300123024AA08FB794B121E308508828509C2
:10373300831239041239D690046AE0F88518828519
:103743001983E068600CE090046A123A5D79E11233
:103753001E30900FB81239CA900FBAE0687003A3F5
:10376300E069601A90043B1239D6900FBA1250C226
:103773001210AA900FBA1246FA7A011244147A0070
:103783007B049004C2E0F9121752900FBA1237B9B2
:1037930074027808120B66AC08AD09FA7B04124474
:1037A3001680027E10900606E4F0EEF97404024ED1
:1037B300BAEE12598022E0F508A3E0F50922123788
:1037C300C52212297DA32274F51203FE74E2120AA4
:1037D30061851882851983ECF0A3EDF0EAFEEBFF17
:1037E30089087429120C4DE0F509742C120C4DE074
:1037F300F50A900477E064046005E06408700579D5
:10380300C20238FC742A120C4DE064FE7003A3E07C
:10381300F4700579C30238FC9004777403123A5D9F
:103823007950121E30742A120C4DAA82AB83794B45
:10383300121E3085188285198312390B1239D6E589
:103843000890046AF0742A120C4D1239041239D606
:10385300E50990046212391274CE55094480C0E020
:103863007412120C4DD0E0F07401250A900488F014
:10387300740F120C4D7402F0742A120C4D1239CAD3
:103883007407120C4DE8F0A3E91239497410120CB5
:103893004D1239D67405120C4DE508F0741B120C49
:1038A3004DE4F090047D740FF07A7D7B047954121B
:1038B3001E3090047C740FF07A7C7B047947121ECF
:1038C3003090047CE0C3940F50237405120C4DE038
:1038D300C0E07402120C4DD0E0F07404120C4D746D
:1038E30001F004120C4DAA82AB83121E547405120C
:1038F3000C4DAA82AB83121E36741E1209E40226F3
:10390300041243B290046B221243B290047522F066
:10391300EEFCEFFD7A897B04121DE82274F7120393
:10392300FEEB90047FF0120F908005740D1209E4F2
:103933007F010206DD12393EA3E0221239B7A3222A
:10394300EAF0A3EBF0221239BDF8A3E0F92274F7F1
:103953001203FE74F8120A61EAFEEBFF7900900489
:1039630077E06408704485188285198374FDF0A399
:1039730074FFF012107A7402120C4D12394374055D
:10398300120C4DE412393EE0C0E07404120C4DD029
:10399300E01239B2C0E07406120C4DD0E0F07407A7
:1039A300120C4DE4123A5D1210CE74080239301233
:1039B30039B7E022F08E828F83221239C2E022F0DF
:1039C300851882851983221243B222E0F8A3E0F915
:1039D30012597FE8F0A3E9F0221209E47F020206FC
:1039E300DDC082C0839004497428F0A3740EF09064
:1039F30004EF7428F0A37411F090044D745EF0A3E7
:103A0300740EF090044F7428F0A3740EF0900451D8
:103A13007464F0A3740EF00235F674F41203FE74AA
:103A2300F9120A618A088B098C0A8D0B8518828525
:103A330019837808120C0E7404120C4DE9F0740506
:103A4300120C4DE4F07406120C4DE4123A5D120DA3
:103A5300387407023B7DE8F0A3E9123A6122123978
:103A6300C2AA82AB832274F41203FE8A088B098AEA
:103A7300828B8312598DEE4F7003023B75900412B3
:103A8300124C4860158A828B83A3A3E0F9EEFAEF08
:103A9300FB900413123EBA12200F8E828F83A3A3CE
:103AA300A3A3A3A3A3A3A3E0640270748E828F8352
:103AB300A3A3A3A3A3A3E054027003023B47850877
:103AC30082850983A3A3E064E960798E828F83A34F
:103AD300A3A3A3A3A3A3A3A3A3E07014900FCCE079
:103AE300048E828F83A3A3A3A3A3A3A3A3A3A3F05F
:103AF3008E828F83A3A3A3A3A3A3A3A3A3A3E0144F
:103B0300123B77A3A3A37404F0900FCD1253C8E81C
:103B1300F0A3E91264A18B0BEA450B7003125E7FDD
:103B23008E828F83A3A3A3A3A3A3A3A3A3E064026F
:103B330060128E828F83A3A3A3A3A3A3A3A3A3E053
:103B43006406702E8E828F83A3A3A3A3A3A3E0A2F4
:103B5300E0501F850882850983A3A3E0F9EEFAEFFD
:103B6300FB121EF08E828F83A3A3A3A3A3A3E0540F
:103B7300FEF08009123DBE22740D1209E47F040297
:103B830006DD74EC1203FE74DD120A61EAFEEBFF3C
:103B93008C088D097437120C4D780C120BF0750AD2
:103BA300007405120C4DAC82AD83121FFE74121209
:103BB3000C4DE070087415120C4DE0602074051272
:103BC3000C4DE0A2E6501E8E828F83A3A3A3A3A372
:103BD300A3A3A3A31250C2121104E960087903122C
:103BE3001DB8023DA47405120C4DE0540C6404701E
:103BF30005750B018003750B00E0A2E55035750ACE
:103C030001E50BA2E0402C1210808A108B11A81042
:103C1300A9111237B4E0687003A3E0696015740555
:103C2300120C4D1269801250BE121EFCE960047919
:103C33000480AC7405120C4DE0A2E6502274061207
:103C43000C4DE0540370187405120C4DE0540C64D1
:103C53000C600CE0540C640860057510018003755A
:103C630010007405120C4DE05403F8740268700CD4
:103C73001269801250BE121F3E023DA47401687087
:103C83003AE510A2E05003123DAC7405120C4DA8A6
:103C930082A9837403120C4DE8F0A3E91243A685AD
:103CA3001882851983123DB6E0C0E07402120C4DF0
:103CB300D0E0123A5D121FE0023DA4E86003023D2A
:103CC300A490045FE0640170108E828F83A3A3A38A
:103CD300A3A3A3E07003023C327422120C4D7402BE
:103CE3001243A6741A120C4D1239D6E510A2E050F5
:103CF300087405120C4D123DACE50BA2E0506AEEC0
:103D0300240FF582EF126044C0E07417120C4DD0FB
:103D1300E0F0900414124C487003023DA41210808A
:103D23008A128B13A812A913741A120C4DE068702F
:103D330003A3E069706B780C1209AF780A1209BB10
:103D430078081209B7A910740C120C4DAC82AD831C
:103D53007421120C4DAA82AB83900414123EB71245
:103D6300200F74071209E48038780C1209AF780A1F
:103D73001209BB78081209B79004751207E9EE24FB
:103D830012F582EF125D727423120C4DAC82AD8377
:103D9300740E120C4DAA82AB83121EE4740912092D
:103DA300E474231209E402646C12698012555D12F3
:103DB3001F7422E8F0A3E9123DBE22123DC222F095
:103DC3008E828F83A3A3A3A3A3A32274F71203FE5C
:103DD3001217E202393374F71203FE1217EE023997
:103DE3003374F71203FE1217FA023933C082C08309
:103DF3001217F40235F674F71203FE121800023993
:103E03003374F71203FE7409120C4DE0F5087808B9
:103E13001209BB12180C7401023930C082C083121C
:103E230018180235F6C082C08312181E0235F674C4
:103E3300F71203FE12182402393374F71203FEEA51
:103E4300FEEBFF89087401650870147900120EA057
:103E530090240FE493FC7900EEFAEFFB120E1602A6
:103E6300393374F41203FE74F9120A61E9FE8A0805
:103E73008B098C0A8D0B7413120C4D1250C29006D1
:103E830052124C486027EE851882851983F074011D
:103E9300120C4D7808120C0EEAF8EBF97405120CAB
:103EA3004D123A59900652123EB712200F023A545D
:103EB300FB90044BE0F8A3E0F583888222C082C024
:103EC3008312185A0235F674F71203FE900F80E03E
:103ED300F97E00800B126030540D64017001190EDD
:103EE3001240C45003E970ED02393374F71203FE34
:103EF300900F81E0F97E00800B126030548D648155
:103F03007001190E1240C45003E970ED0239337485
:103F1300F21203FE890BE975F006A4240CF508E5FB
:103F2300F012302C8A0CE508250CFAE5093400FB65
:103F33001216C28A0C8B0DAE0CAF0DEE4F6027AC80
:103F430008AD09790012162C1237B4E50BF0EE25F3
:103F530008F8EF3509F98E828F83A3A3A3A3A3A344
:103F6300A3A3A31239D6EEFAEFFB024EBD74F612E9
:103F730003FEEAFEEBFF120DF2900F7FE0F8E9C3B8
:103F83009840099004451250C2120DF8EE2402F82D
:103F9300EF1256D290044712558C900447E004F078
:103FA300EEFAEFFB120DFE850882850983E0025BC2
:103FB30088C082C08379009004458001091250C2F1
:103FC3008A828B83E582458370F20235F674F71299
:103FD30003FEEAFEEBFFEE4F6056900445124C4899
:103FE300604E888289837A007B00EE65827003EFDE
:103FF3006583600FAA82AB83124036E582458360F6
:104003002F80E7900445124042687002EF698E8268
:104013008F8370081239CA900445800312647E129C
:1040230039D6EEFAEFFB121FB0EEFAEFFB1216C809
:1040330002393312403A221243B68882898322120C
:1040430043B2EE22C082C0839004458004888289F3
:1040530083124C48600B888289831246FAEC4D70B8
:10406300EC8A828B83E4F0A3F0E8496006888289B6
:104073008380039004451239430235F674F7120323
:10408300FE90044580048A828B831240BF4B6025D7
:104093007E0080010E1240C450ECEE75F006A4FCC5
:1040A300ADF0EA2CFCEB3DFDEC2410F582ED124162
:1040B3001470E180047A007B00023933125561EAFF
:1040C3002212411DEEC3982274F71203FE7D008075
:1040D300010D124119EDC3985034ED75F006A4FE9D
:1040E300A8F0E8FFEA2EFEEB3FFFEE2410F582EF87
:1040F30012411470DCED75F006A4FEE8FFEA2EFA17
:10410300EB3FFBEA2411F582EB1260444CF00239D9
:1041130033126050692212411D2212698AEB340066
:10412300F583E0F82274F61203FE120F187A007B6F
:10413300008025EAF8EBF9E875F006A4F8ACF07511
:10414300F006E9A42C12553612684BA3E412562C40
:10415300F0A31268511269C89023FA122CAB40D312
:104163007A007B00801C8A088B0974037808120B81
:1041730066124FEAA374FEF0A30412540CA3E412D4
:1041830069C89024031241C740DC7A007B00801D7C
:104193008A088B0974037808120B667406125CBCD8
:1041A300740D12650374FEF0A3041269C890240908
:1041B3001241C740DB90240DE493900453F0124165
:1041C300D10239DFE493F8C3EA98EB9400227CE848
:1041D3007D037A107B009004C2E0F912174C22741D
:1041E300F01203FE74F5120A618A088B09890A8C9E
:1041F3000BE9A2E050147508FC7509FFA2E1500514
:10420300D2E40242A4D2E30242A4124EA97003A351
:10421300E06970057900024371AC0A7902AA08AB20
:1042230009120EF4E960EDE50AF50C780C1209BBEE
:1042330079027CFE7DFFAA08AB09124C241209E423
:10424300E9600302436FE50AC2E5F50A9004B5E0AD
:104253007051E50AA2E6404B7403120C4DAC82ADDB
:1042630083AA08AB09120C7EE970321245458A0C09
:104273008B0DA80CA90DE8FEE9FFE8496025EE24A3
:10428300020A0AEF1229BB601AEE2402FCEF340083
:10429300FD7403120C4DAA82AB83121DE8E50AD20A
:1042A300E5F50A900448E0F50C900468E0F50EA3E8
:1042B300E0F50F780E1209B77D017C00900448E009
:1042C300F9AA0EAB0F120EAC74021209E4E9F890CE
:1042D3000448E004F0E8600302436FE50AA2E550F6
:1042E30004740E80027406C0E07401120C4DD0E019
:1042F30012599E8A0E8B0FAE0EAF0FEE4F606912EE
:10430300438F1243A6888289837401F07478550A17
:10431300A3126990E50C126990A3E508F0E5091270
:10432300437EE4F0E50AA2E5500F7403120C4DAC92
:1043330082AD83E824061243758E828F83A3A37410
:10434300FDF0A374FFF0E50B6015902410E493F8DF
:10435300E50BC3985009EE2413125971E50BF0EEE7
:10436300FAEFFB120D2680067910800279C7740BD1
:104373008049FAE93400FB121DE82288828983A36D
:10438300A3A3A312438A22125705A322EE241712D2
:1043930059827401F012107AEE241A125982EAF04B
:1043A300A3EB22F012698434001243B022F5831286
:1043B30043B622E0F8A3E0F922740D1209E47F0862
:1043C3000206DD74F61203FE7A007B10125E8C6027
:1043D300089004D47401F080299006F6E0640190FB
:1043E3000FCA7006E0FC79018004E0FC79037A00CF
:1043F3007B00120E169023F81244087A007B1012E9
:1044030044160239DF12440C22E493FC740193FD39
:10441300227B009004C2E0F91217462274EC1203C7
:10442300FE8A088B098C0C8D0D890E7414120C4DA9
:10443300124E037416120C4DE0F510A3E0F51112A1
:104443001104E960077AFF7BFF024542900FC9E040
:10445300640260030245357900AA08AB09120EFA1B
:10446300A90E120EEE8A128B13AE12AF13EE4F701B
:104473000302451D8E828F83A3A3A3A3A3E064013C
:104483008E828F83A3A370691250C28E828F83A3FF
:10449300A3A3A3A3A3E05418604390240EE4938E34
:1044A300828F83A3A3A3A3F0EA650C7003EB650DCE
:1044B3006014EA650A7003EB650B600AEA65107025
:1044C30003EB6511701F78101209B7AC0AAD0BAA84
:1044D3000CAB0D12120074021209E48008900467F9
:1044E300125E76A3F074FE6A700374FF6B601D8026
:1044F3004EA3A3A3E0640360298E828F83A3A3A3A7
:10450300A3A3E0640470057AFE02444A8E828F837B
:10451300A3A3A3A3A3E0640270089004B4E064021D
:1045230070101245458B0BEA450B6006AA08AB09D0
:10453300800DAA08AB09900449123EB712200F025E
:10454300646C900475124C2A1211C42274F712037E
:10455300FEEAFEEBFF120CD2E9700AEEFAEFFB1251
:104563000CDEE96006EEFAEFFB80047AFE7BFF02C5
:10457300393374F01203FE8A0A8B0B8C0E8D0F896C
:1045830009750800121104E9790060030246ECAAD8
:104593000AAB0B120EFAA909120EEE8A0C8B0DAEA2
:1045A3000CAF0DEE4F60198E828F83A3A3A3A3A339
:1045B300E0640270559004B4E0640270030246EABA
:1045C300AA0AAB0B90044F123EB712200F120CE451
:1045D3008A0C8B0DA80CA90DE84970030246EA88E2
:1045E300828983A3A3A3A3A3E0A2E040030246EA34
:1045F300750C01A2E150687901AC0AAD0BAA0EABB0
:104603000F120E46E970640246EA8E828F83A3A3DB
:10461300A3A3A3E064037005750C0280528E828FFE
:1046230083A3A3A3A3A3E0640160030246EA900467
:10463300751246FA8E828F83124A4F8A0C8B0DA80D
:104643000CA90DE84960D1902407E493FA88828984
:1046530083E0C39A50C2A3E060030246EA80B988AC
:10466300828983A3A3A3A3A3D2E1F0EE4F603A8E82
:10467300828F83A3A3A3A3A3A3E05418602B75087D
:10468300018E828F83A3A31207E9750CFE750DFFBC
:10469300780C1209B77900AC0AAD0BAA0EAB0F1256
:1046A3000F0C74041209E4803E900468E0650E70F8
:1046B30004A3E0650F701490240FE493FCA909AAE6
:1046C3000AAB0B120E16750801801CA90CAC0AADBF
:1046D3000BAA0EAB0F120E46E9700C750801A9095F
:1046E300AA0AAB0B120EA0A9080243C1E50C2415BC
:1046F300F582E50D1259851253E22274EA1203FE84
:1047030074F0120A618A0C8B0D8C088D09742612C1
:104713000C4DE0F514A3E0F5157512069004F5129F
:104723004C4860239004751246FAAA08AB0912118B
:10473300EE8A108B11EA4511600D8A828B83A3E008
:1047430070057900024A37E50C241DF50EE50D349A
:1047530000F50F850E82124C34F51388828983A3EA
:10476300A3A3E0FA88828983A3A3A3A3E0F9EA249D
:1047730000FEE439FFAA08AB09120EA6850E828556
:104783000F83124A72E029F50BE50AA2E55003757F
:10479300120E7487550A70177418550A6418600F3F
:1047A300E50C2417F582E50D126044651260077964
:1047B30001121DB8808C530A78C3EE94F8EF94FF6E
:1047C300501D7900EEFAEFFB124A4160128882898C
:1047D30083A3A3A3A3A3A3E05418600302474578CC
:1047E300081209B77D00124A651209E4E9F8740357
:1047F300687003024745E860030248B07418550A1D
:104803007003024965E50AD2E0F50AA2E45004D236
:10481300E1F50AA90A1250BB124A41605388828902
:1048230083A3A3A3A3A3A3E054186044888289832A
:10483300A3A3A3A3A3E064017036E5104511603080
:104843009004751246FA88828983124A4F8A0E8B26
:104853000FA80EA90FE849601788828983A3E06037
:104863000F851082851183A3125B93500302474582
:10487300E50AF50E780E1209BB124A581209E4E94B
:10488300702B7C007D0085148285158374FFF0A353
:10489300F0850C82850D83A3A3A3A3A3A3A3A3E005
:1048A30060031246EFA90B1250BB12181285148233
:1048B300851583E0F47003A3E0F460399004B4E059
:1048C30064027003024745124DF4E0FAA3E0123E7E
:1048D300B312200FEA65087003EB65096003024712
:1048E30045EEFAEF123EB312200F8514828515832D
:1048F300EAF0A3EBF078081209B77D01124A6512BA
:1049030009E4A90AEEFAEFFB120EFA8A088B09A84A
:1049130008A909900468E0687003A3E069600302D2
:104923004A28EEFAEFFB120CE48A088B09A808A9BF
:1049330009E849606E88828983A3A3A3A3E0640185
:10494300600D88828983A3A3A3A3E06402705485C6
:104953001882851983AC82AD83EEFAEFFB120C7ECD
:104963008055900461E0600FE50AF50E780E120998
:10497300BB124A581209E4E50AF50E780E1209BB78
:1049830079027CFE7DFFEEFAEFFB124C241209E460
:10499300E960030248B085148285158374FFF0A390
:1049A3000248F712107AEAFCEBFD85188285198319
:1049B300AA82AB83121DE8850C82850D83A3A3A372
:1049C300A3A3A3A3A3E06401700F1246EF7408121C
:1049D3000C4DAA82AB83121DE8124BFE12580A44F7
:1049E30030F50878081209BB7401120C4D85820852
:1049F30085830978081209B7740B120C4D85820858
:104A030085830978081209B7E513F50878081209B0
:104A1300BB7900EEFCEFFD1250BB120E4074061280
:104A230009E4024745124BFE125974124A72E50B10
:104A3300F012109274101209E47F0E0206DD120EBA
:104A4300EE8A0E8B0FA80EA90FE84922A3A31255D5
:104A5300611211EE227901AC08AD09125556124CC0
:104A63002422AC0BA913125556120EAC7402221257
:104A73005812A3A3A3A32274F01203FE74F0120A24
:104A8300618A0C8B0DECFAEDFB750F089004F5129F
:104A93004C486014125B8C8A828B83E58245836069
:104AA30007A3E07003024BF9124BFE3400124C349F
:104AB300F50B88828983124C07E0FBEC2400FEE4AB
:104AC3003BFF88828983A3A3124C07A3A3E0FBECDB
:104AD300F508E43BF50988828983A3A3A3A3A3A3D1
:104AE300A3E0F50EE50AA2E45003750F10A2E5500A
:104AF300067408250FF50F748F550A700FE50C2403
:104B030017F582E50D126044650F60087901121DE7
:104B1300B8024BF9530A707800E50AA2E450221256
:104B23004BFE1260442408FCA3E03400FD74081219
:104B33000C4DAA82AB83121DE87808E50AC2E4F59E
:104B43000AE50AA2E55028124BFE12604428F8A396
:104B5300E03400F9E82408FCE93400FD8518828577
:104B63001983AA82AB83121DE8E50AC2E5F50AACF4
:104B73000EA90BEEFAEFFB120EB2E9F874036860AC
:104B830075900468E06E7003A3E06F605EE8705494
:104B9300E50AF50F780F1209BB124C151209E4E967
:104BA3007054780A1209BB7401120C4D85820C856E
:104BB300830D780C1209B7740B120C4D85820C858A
:104BC300830D780C1209B7E50BF50A780A1209BBB5
:104BD300A90EAC08AD09EEFAEFFB120E40740612F3
:104BE30009E48012740468700D80B7780A1209BB57
:104BF300124C151209E474100243BEE50C241DF592
:104C030082E50D22A3A3A3E0FC88828983A3A3A347
:104C1300A3227901124DFB125985124C2A124C24FE
:104C230022120E6A740122E0FCA3E0FDAA08AB097C
:104C330022F58312403AA3E0F50A88828983A3A36D
:104C4300E0229004391255BD2274E81203FE74F574
:104C5300120A61EAFEEBFF8C088D09891474231292
:104C63000C4DE0F50F7424120C4DE0F512A3E0F5A2
:104C7300137426120C4DE0F516A3E0F517742812F1
:104C83000C4DE0F50EA90F120EB88A108B117401AA
:104C9300120C4D7408F0E50EA2E450037410F0E515
:104CA3000EA2E55004E02408F0851882851983AA32
:104CB30082AB831210EC8A0C8B0DEA450D70030254
:104CC3004DDBEA2417F582EB124DED12107AE50C59
:104CD300241AF582E50D1259741239437403120C28
:104CE3004DAC82AD83AA10AB11120C7EE9601D128C
:104CF3004DE57403120C4DA882A983E50C2418F525
:104D030082E50D125974E8F0A3E98024E50EA2E4CC
:104D1300501FE5106E7003E5116F7015124DE5E538
:104D23000C2418F582E50D125974E512F0A3E5136E
:104D3300F0124DF4124E03850A82F5837402F0A338
:104D4300E50E124E0BE50FF0EE850A82850B83A369
:104D5300A3A3F0EF850A82850B83A3A3A3A3124E1B
:104D63000BA3A3A3E508F0E509850A82850B83A3BA
:104D7300A3A3A3A3A3F0AA10AB11120EA6E92514B3
:104D8300850A82850B83A3A3A3A3A3A3A3F075081A
:104D930000E50EA2E45011AC12AD13E50A2408FAA3
:104DA300E50B124377750808E50EA2E55014AC161F
:104DB300AD17E50A2508F8E50B3400F9E8240812D5
:104DC3004375850C82850D83A3A3E510F0A3E5113C
:104DD300F0AA0CAB0D120D26740B1209E47F10021E
:104DE30006DDE50C2416F582E50D1259857401F0F4
:104DF30022124DFB12598522E50C12698BE50D2217
:104E0300E0F50AA3E0F50B22F0850A82850B83A364
:104E1300A32274F21203FE8A088B09ECFEEDFF89CC
:104E23000A7900124EA97003A3E069700479018026
:104E330073750B01900468E065087004A3E06509CD
:104E4300601F750B00780B1209BBA90AEEFCEFFD7E
:104E5300AA08AB0912114074011209E4E9F50B80A9
:104E6300417900EEFAEFFB120EEEEA4B602B8A82D9
:104E73008B83A3A3A3A3A3A3E05418601C7508FE0C
:104E83007509FF78081209B78A828B83A3A31207D7
:104E9300E91267A01209E480097901EEFAEFFB1227
:104EA3000DC8A90B8014120EFA8A0C8B0DA80CA93D
:104EB3000D900468E068221209E47F060206DD749F
:104EC300F41203FE75084E75090B7A101264A88B51
:104ED3000BEA450B70031241D1900453E014F070B8
:104EE3000C90240DE493900453F0120F067E007F80
:104EF30000806C850882850983A3A3A3A3E060597E
:104F0300F46056E5082404F582E509125E707049E1
:104F1300850882850983A3A3A3A3A3E0640370196F
:104F230079028508828509831246FA8508828509F4
:104F330083A3A31250C2120E46850882850983A358
:104F4300A3A3A3A3E0640160108508828509837489
:104F5300FEF0A30412501CE4F01231D2123024905C
:104F630023FC126604408C7E007F008039121020DF
:104F73008E088F0974037808120B6674C62508FC23
:104F8300740C3509FD7A527B0E12100EEA4B70DD5C
:104F93008E088F0974037808120B66124FEA1268A1
:104FA3004BE4F01231D2902403E493F8C3EE98EF6C
:104FB3009400501B8E088F0974037808120B661235
:104FC3004FF2E82407F582E9125E7070D680A17E65
:104FD300007F00800A124FFD600214F01231D212DA
:104FE300660140F1023B80124FF28882898322746A
:104FF300C62508F8740C3509F922EEF8EFF9E875BF
:10500300F006A4F8AAF075F006E9A42AF974662854
:10501300F582740C39F583E022125023A3A3A32253
:10502300F0850882850983A3A32274F71203FE7413
:10503300E1120A61ECFEEDFF750800EE4F60728A23
:10504300828B83E0241C125EA1124C4860638A8227
:105053008B831250C2851882851983AC82AD83EA93
:10506300241BF582EB125D72EA241CF582EB1250CD
:10507300BE121062740B120C4D1250C67003A3E0E3
:1050830069702E7402120C4DE064017024741D12B9
:105093000C4D123EB7E064017017741D120C4D12D3
:1050A3003EB9A3A3E0F88E828F83E068700375088E
:1050B30001A908741F023930124DFB3400F5831225
:1050C300556122122979E0682274F41203FEE97013
:1050D30024790090044D123EB712200F8A0A8B0BDD
:1050E300AE0AAF0B74FE6E700374FF6F701A9024D8
:1050F3000AE4936013790190044D123EB712200F16
:105103008A0A8B0BAE0AAF0B1210B002334B74F644
:105113001203FE74F3120A611216388A088B09AE61
:1051230008AF09900468E06E7003A3E06F60E912B2
:105133001086EA6E7002EB6F60DEEEFAEFFB12117F
:1051430004E970D4EE4F60D0851882851983E4F0AA
:1051530004120C4DEEF0A3EF125174E970BA74FE11
:105163006E700374FF6F60B0EEFAEFFB740D0239DB
:10517300DC123A61120C9622C082C0831210B00274
:1051830035F67F0A0206DD74F21203FEEAFEEBFF38
:105193008C0A8D0B8908740E120C4DE0F50974FC12
:1051A3006E700374FF6F70057900024EBD790012B3
:1051B3000EFA8A0C8B0DAE0CAF0D900468E06E7086
:1051C30003A3E06F7006E509A2E650DCA9091266A5
:1051D3008E706179007AFE7BFF12668E70567418AA
:1051E300550970030252C1780079008003122B73B2
:1051F3009023FC122B6A40030252C1E8FAE9FBEA4E
:1052030075F007A4FAACF075F007EBA42CFB74540B
:105213002AF582740B3BF583E0541870D0E875F0DF
:1052230007A4F8AAF075F007E9A42AF9744E28F840
:10523300740B39F988828983A3A3A3A3A3A3E0549E
:105243001860097418550970030251AB8882898369
:10525300EEF0A3EFF074FE650A700474FF650B6053
:10526300031253E888828983A3A3A3A3A3A3E50915
:10527300F0A2E0500D88828983A3A3A3A3A3A3D2A2
:10528300E2F07401650888828983A3A3A3A3A370B2
:1052930038740112540CE05418602890240EE493DF
:1052A30088828983A3A3A3A31253D61211EE8B0D75
:1052B300EA450D60030251AB780079008039790229
:1052C3000251AD900467E080D7E06401700302519E
:1052D300AB88828983A3A3A3A3A3A3E05418600785
:1052E30090240EE4938004900466E012437EE50864
:1052F300F00251AB122B73902404E493FAC3E89A9F
:10530300E9940040030251AB7A007B00804BEAFC36
:10531300EBFDEC75F007A4FCAEF075F007EDA42EE1
:10532300FD74502CF582740B3DF58312598DE8FC06
:10533300E9FDEC75F017A4FC85F00975F017EDA4F1
:105343002509FD74DE2CF58274093DF583E06E704A
:1053530003A3E06F609E1230A79023FC1230344009
:10536300AD124408EC6A7002ED6B7088E875F017B3
:10537300A4F8AAF075F017E9A42AF974DE28FE74DC
:105383000939FF7C177D007900EEFAEFFB12162C2A
:105393008E828F831253EE9004751253C8A3A3A376
:1053A300A3A3A3E8F0A3E91253CE7401F0EE240EF5
:1053B30012597174011253F6120231EE240D12596F
:1053C30071E80252F31237C5A3A322F0EE240F12A1
:1053D300598222F01253DFAA0AAB0B22900475E024
:1053E300FCA3E0FD2288828983A3A3E50AF0A3E559
:1053F3000BF022F01253FB22902407E4932401F8CC
:10540300E43400F97A027B002212438AA32274ED6A
:105413001203FE8A088B09890E12553F4005790550
:1054230002550D121860AA08AB091256119023FAFF
:10543300125510650A7003E9650B70077AFE7BFF4E
:105443001256119023FAE4125518E50A98E50B99C0
:10545300400302550B12551C6012E50A75F006A4B1
:10546300F875F006E50B1255671216C8E50E6018BD
:10547300E50A75F006A4F8AAF075F006E50B1255D7
:1054830093701A790102550DE50A75F006A4F8AA7E
:10549300F075F006E50B125574E4F0A3F0E50A7518
:1054A300F006A4F8AAF075F006E50B125534A31222
:1054B300582088828983A3AA82AB831255828A8269
:1054C3008B83E0603F12551C603A8E108F1175126A
:1054D3000078101209B3E50EC333FCE433FDE50A8B
:1054E30075F006A4F50AA8F075F006E50BA428F5F7
:1054F3000B746A250AF582740C350B1250C01230F6
:10550300451209E47900800279070266A4122CCCC3
:10551300E8229023F212602B22E50A75F006A4F824
:10552300AAF075F006E50B12556FF8A3E0F9E84908
:1055330022A42A1256C888828983A322ECFEEDFF97
:10554300902405E493F8E9C39822F5831255611278
:1055530016C822E50C12698BE50D3400F583E0FAD9
:10556300A3E0FB2212556FFAA3E0FB22125574E06D
:1055730022A42AF9746A28F582740C39F58322E58A
:105583000EF0900FCB12558C22E088828983F02293
:105593001256ECF50CE93400F50DE50EC333FAE4CD
:1055A30033FB1216C2850C82850D83EAF0A3EBF060
:1055B300850C82850D831255BD221243B6E849221C
:1055C30074F41203FEECFEEDFF740C120C4D123951
:1055D300CA88088909125611AC0AAD0BECF8EDF92B
:1055E3009023FA1256195021E875F006A4F8AAF090
:1055F30075F006E9125534E08E828F8312562C1211
:1056030056221239D6790080027904023B80120EA9
:105613007C8A0A8B0B2212303DC3EC9AED9B22123B
:1056230043B2850882850983221257012274F61238
:1056330003FE7E007F008028EEF8EFF9E875F006A0
:10564300A4F8ACF075F006E9A42CF9746828F58287
:10565300740C1262AF6A7003A3E06B60571231D20D
:1056630012660140D31265FC7002E96F704674FE46
:105673006A700374FF6B703C7E007F0080031231FD
:10568300D2126601502E124FFD70F3EEF8EFF9E8D7
:1056930075F006A4F81256BE1256F360171256DAC6
:1056A300F8E91256D2888212554D850882850983FE
:1056B300E4F0A3F0EEFAEFFB0239DF75F006E9122E
:1056C30056C622A42AF9746628F8740C39F92234D0
:1056D30000F98808890922EEF8EFF9E875F006A4C5
:1056E300F875F006E91256EC221256C6E824042295
:1056F300A3A374FE1256FE1255BD22F0A304125743
:105703000522F088828983A3A3A3A32274F612033C
:10571300FEEA241DF582EB12580AF9604BEA241DB8
:10572300F582EB1260442402FCA3E03400FD125521
:105733004340030257FD780080298C828D83E0F576
:1057430008A3E0FFE5082400E43FF509E833FEE49D
:1057530033FF74AE2EF582740C3FF583125820127A
:10576300580008E8C39940D28A828B83A3A3A3A3DA
:10577300A3A3A3A3A31246FA900468E06C7003A347
:10578300E06D700F7CAE7D0C1228E21250BE120E3B
:10579300708067EA2411F582EB126044605CFC744C
:1057A300FF2CF075080178081209BB7508AE75095E
:1057B3000C78081209B7E9F50878081209BBEA243E
:1057C30012F582EB126044F50878081209BBEA244B
:1057D30015F582EB1259741207E9ECF91228E2125B
:1057E30046F78A828B83A3A3A3A3A3A3A3A3A31292
:1057F30050C2120E8874071209E40239DFEC240246
:105803000C0CED3400FD22125985125812E022E0EF
:10581300F8A3E0F5838882A32288828983E508F0D0
:10582300A3E509F02274EA1203FE74FD120A618AE9
:10583300148B158C0E8D0F890D7419120C4D125982
:105843008D741B120C4DE0F511741C120C4DE0F518
:105853000C741D120C4D124E03741F120C4DE0F507
:10586300106008E50CC333240480027402C0E074A2
:1058730001120C4DD0E012599E8A088B09EA4509A2
:1058830070030259698A828B83A3A3E514F0A3E50D
:1058930015126497E50EF0A3E50FF0EA2413F582E1
:1058A300EB125974E50DF0EA2414F582EB125974E6
:1058B300E511F0EA2417F582EB12604464017040AD
:1058C3001210808A0E8B0FA80EA90F8508828509F6
:1058D30083A3A3A3A3E0687003A3E0696022EE4F50
:1058E3006011E508241AF582E509125974EEF0A354
:1058F300EF800CE5082417F582E509125974E4F0EA
:1059030012597812598D8E828F837405F0A3E51096
:105913007004E50C80487401250C1259977A0080B5
:1059230028850A82850B83E0125993850A82850BA9
:1059330083A3E08E828F83F0E50A2402F50AE50B48
:105943003400F50BA30EAF830AEAC3950C40D212C1
:105953001080EA125993121080EB8E828F83F0AA83
:1059630008AB09120D267403024A39EE240CF582A2
:10597300EF125985221228F312598522EE240BF5D2
:1059830082EF3400F58322900434E0FEA3E0FF228B
:105993008E828F83F0A3AE82AF8322123A611210FC
:1059A300EC22C082C083E9C333FCE433FDEA2CFA62
:1059B300EB3DFBEA24FEF582EB34FF1250C00235C7
:1059C300F674F21203FE89098A0A12553F400479DC
:1059D30000804075080080020508E508C39509505A
:1059E3002AE508C333F8E433F9EE28F582EF39F5F5
:1059F30083C082C0831210808A0C8B0DD083D08227
:105A0300E0650C7004A3E0650D70CDE50A650870D0
:105A1300BE7901024EBD74F01203FE74F3120A61E3
:105A23008A088B098C0A8D0B890C750D00121104E1
:105A3300E979006003025B1BAA08AB09120EFAA9FD
:105A43000C120EEE8A0E8B0FAE0EAF0FEE4F7003DD
:105A5300025B198E828F83A3A3A3A3A3A3E0A2E275
:105A63004003025B19121080EA650A7003EB650BB1
:105A73007011780D1209BBE4F50EF50F780E1209BB
:105A8300B78044AA0AAB0B120CD8E964017068858D
:105A930018828519837404F07401120C4D1253EEAD
:105AA300851882851983AA82AB83120C96E9640157
:105AB3007045750D01780D1209BBE4F50EF50F78ED
:105AC3000E1209B7750D00780D1209BB780D120976
:105AD300BB7408120C4D85820E85830F780E120954
:105AE300B7902410E493F9AC0AAD0BAA08AB0912E2
:105AF3000E8874071209E48E828F83A3A3A3A3A342
:105B0300A3E0A2E1400D8E828F83A3A3A3A3A3A34B
:105B1300C2E2F0750D01A90D0243BC74F61203FE37
:105B2300E9FE7900120EFAEEF9120EEE8A088B09DD
